:020000040800F2
:10000000A008002089010008CF2B00086F1E0008FF
:10001000CD2B00088F0200083932000800000000D4
:10002000000000000000000000000000352C000867
:100030009102000800000000D12B0008792C000874
:10004000A3010008A3010008A3010008A301000800
:10005000A3010008A3010008A3010008A3010008F0
:10006000A3010008A3010008A3010008A3010008E0
:10007000A3010008A3010008A3010008A3010008D0
:10008000A3010008A3010008A3010008A3010008C0
:10009000A3010008A3010008A3010008A3010008B0
:1000A000012D0008252D0008192D00080D2D000830
:1000B000A3010008312D0008A30100087D1E0008DF
:1000C000711E0008A3010008A3010008A301000895
:1000D000A3010008213200082D320008A301000806
:1000E000A3010008A3010008A301000800F002F822
:1000F00000F03AF80AA090E8000C82448344AAF188
:100100000107DA4501D100F02FF8AFF2090EBAE885
:100110000F0013F0010F18BFFB1A43F0010318473B
:100120003037000050370000103A24BF78C878C13B
:10013000FAD8520724BF30C830C144BF04680C60ED
:10014000704700000023002400250026103A28BF35
:1001500078C1FBD8520728BF30C148BF0B60704739
:100160001FB51FBD10B510BD00F058F81146FFF7C0
:10017000F7FF03F073F800F076F803B4FFF7F2FF2F
:1001800003BC00F07DF8000009488047094800479B
:10019000FEE7FEE7FEE7FEE7FEE7FEE7FEE7FEE737
:1001A000FEE7FEE704480549054A064B7047000094
:1001B000FF2C0008ED000008A0020020A00800208D
:1001C000A0040020A00400204FF0000200B5134658
:1001D00094469646203922BFA0E80C50A0E80C5067
:1001E000B1F12001BFF4F7AF090728BFA0E80C5018
:1001F00048BF0CC05DF804EB890028BF40F8042B11
:1002000008BF704748BF20F8022B11F0804F18BF7D
:1002100000F8012B7047704770477047754600F033
:100220002BF8AE4605006946534620F00700854688
:1002300018B020B5FFF7B6FFBDE820404FF000062C
:100240004FF000074FF000084FF0000B21F00701BE
:10025000AC46ACE8C009ACE8C009ACE8C009ACE801
:10026000C0098D46704710B50446AFF300802046A4
:10027000BDE81040FFF781BF004870473C020020F6
:1002800001491820ABBEFEE7260002007047FEE7DA
:10029000704772B6FEE710B590F8211000220229CF
:1002A00005D00421816380F82020012010BD016861
:1002B0000B6823F00E030B6001680B6823F0010349
:1002C0000B6090F84030C46B012101FA03F36360C6
:1002D00080F8211080F82020104610BD10B590F84D
:1002E00021100024022903D00421816301243DE070
:1002F00001680A6822F00E020A6001680A6822F0AA
:1003000001020A601A4A0168914201D1012121E0EB
:10031000174A1432914201D110211BE0144A2832AD
:10032000914201D1891515E0114A3C32914201D127
:1003300089140FE00E4A5032914202D14FF48031BD
:1003400008E00B4A6432914202D14FF4801101E07F
:100350004FF08071064A083A5160012180F821105F
:10036000002180F82010416B01B18847204610BD64
:100370000800024090F821007047000070B5044664
:1003800000F00CF90546601C02D0044800780444D3
:1003900000F004F9401BA042FAD370BD0000002019
:1003A0002DE9F84FDFF8B8910024A9F1040B23469A
:1003B0000F2709F1040AABF1040EC9E00125A5409D
:1003C0002A40AA427DD1674ED1F804C0ACEB0608A2
:1003D000B44532D014DCBCF1030F3AD009DCBCF1D7
:1003E000000F2AD0BCF1010F1CD0BCF1020F31D19B
:1003F0001DE0BCF1110F17D0BCF1120F2AD119E08A
:10040000B8F5881F19D006DCB8F5803F15D0B8F5CF
:10041000801F1FD111E0B8F5001F0ED0B8F5041FE2
:1004200018D10AE0CB6815E0CB681B1D12E0CB6841
:1004300008330FE0CB680C330CE08B682BB1012B39
:100440004FF0080303D0456104E0042302E0056196
:1004500000E00023FF2A01D8064601E000F104066F
:100460004FEA840501D9A5F12005D6F8008007FAE6
:1004700005FC28EA0C0803FA05F548EA0508C6F861
:1004800000804D68ED0062D5374DAE6946F001063B
:10049000AE61AD6924F0030605F001050095334D0A
:1004A00006EB050CDCF80850A607360F07FA06F82D
:1004B00025EA0805DFF8B880404503D14FF0000871
:1004C00017E044E0DFF8AC80404502D14FF001086E
:1004D0000FE0DFF8A480404502D14FF0020808E0A9
:1004E000DFF89880404502D14FF0030801E04FF05B
:1004F000040808FA06F848EA0508CCF808804D68B0
:10050000D9F80060ED024D4601D5164300E0964350
:100510002E604D68DAF80060AD02554601D51643ED
:1005200000E096432E604D68DBF80060AD035D4649
:1005300001D5164300E096432E604D68DEF800605A
:10054000ED03754601D5164300E096432E60641C0A
:100550000D682A46E5407FF431AFBDE8F88F000012
:10056000080401400000111000100240000001408A
:1005700000080140000C014000100140001401403F
:10058000C26821EA02030A4043EA0241016170475E
:100590000AB1016170470904FBE700000148806867
:1005A0007047000000000020704770472DE9F041BF
:1005B000016804464A694E6890F83E000025D7431A
:1005C000FA050BD4F243D20508D46FF480720125EA
:1005D0004A6121680A6842F400420A60B90508D4F9
:1005E000F143C90505D422686FF4007145F0020596
:1005F0005161790525D4F143C90522D4638D94F85E
:100600003D10226B202808D13BB9212910D029297F
:100610000ED0282901D1212A0AD022686FF48061E6
:10062000516145F00405102806D0402804D008E0A8
:10063000204602F02BF804E02068016841F40071C4
:100640000160380508D4F043C00505D421686FF473
:10065000006045F008054861002D07D0206C284354
:1006600020642046BDE8F04101F074BCBDE8F08193
:100670002DE9F047026800215368C66A90F83E40B1
:1006800090F83D50102C12D0402C10D0046C002C4F
:100690007DD05469E443A6077AD4DE43B60577D407
:1006A000036C03B19169BDE8F04701F0CBBF9769D6
:1006B00051694FF42A0CC9435FEAC1784FF02A49C7
:1006C00004D066452AD04E4528D010E0DE43B6055A
:1006D0000DD4C16A614501D1012103E0C16A4945D8
:1006E00001D10821C162BDE8F04701F011BF0E073A
:1006F00016D4DE43B60513D4416CC9B21161416B07
:1007000009B1896A29B9816B002907D0896A002952
:1007100004D00068416841F400614160BDE8F087A1
:100720008E0706D4DE43B60503D4BDE8F04701F0DA
:1007300043BEFE43526876074FEA02521DD4002A98
:10074000ECDB0A0608D4DA43520505D4490705D57F
:10075000BDE8F04701F0D4BD4907DFD4D94389058E
:10076000DCD4212D05D0402CD8D1BDE8F04701F0D4
:1007700015BFBDE8F04701F081BD002ACEDB4A0677
:100780000BD4DA43520508D4490708D501E00DE03F
:100790000EE0BDE8F04701F0F7BC4907BED4D943ED
:1007A0008905BBD4BDE8F04701F080BC916970E7D2
:1007B000E10606D4D943890503D4BDE8F04701F02A
:1007C000ADBF2821212D27D0292D25D0650655D450
:1007D000DD436D0552D4640752D590F83D30448D09
:1007E000002C9BD01269446A2270426A521C4262F9
:1007F000428D521E4285428D002A8FD12A2B8DD1E7
:100800000268536823F4806353602222026380F8F5
:100810003D1000F04FF981E7250623D4DD436D0537
:1008200020D4640720D590F83D30448D002CF2D0C0
:10083000446A24781461426A521C4262428D521EFC
:100840004285428D002AE6D1292BE4D10268536803
:1008500023F4806353602122026380F83D1000F08E
:100860002AF95BE76107D6D4D9438905D3D4418DF2
:100870000029D0D0416A097811610AE06107CAD421
:10088000D9438905C7D4418D0029C4D01169426A72
:100890001170416A491C4162418D491E41853DE705
:1008A0007047000070B5040025D094F83D00002585
:1008B00020B984F83C50204600F0BEF8242084F88B
:1008C0003D002068016821F0010101602068016895
:1008D00041F4004101602068016821F40041016099
:1008E00000F018FA4D4A6168914201D84C4900E085
:1008F0004C49884201D2012070BD4B492368B0FBAE
:10090000F1F15E6826F03F060E435E606368934235
:1009100006D94FF4967359434FF47A73B1FBF3F150
:100920002368491C1E6A26F03F063143196261683C
:10093000914210D84900401EB0FBF1F2521CC2F3A4
:100940000B02042A01D2042022E0B0FBF1F0401C8B
:10095000C0F30B001CE0A268F2B301EBC10303EB90
:100960000116431EB3FBF6F35B1C43F480431B05E7
:1009700049D092B301EBC10202EB0111401EB0FB62
:10098000F1F0401CC0F30B0040F4804040F4004004
:100990002168CA694CF6FF739A431043C861D4E9D1
:1009A000071001432068026822F0C0021143016071
:1009B000D4E9030101432068826848F2FF339A4377
:1009C00011438160D4E9050108432168CA6822F017
:1009D000FF021043C86001E00EE016E020680168E5
:1009E00041F0010101602564202084F83D00256369
:1009F00084F83E50002070BD01EB4106431EB3FB5E
:100A0000F6F35B1CB3E70120C2E701EB4101401E96
:100A1000B0FBF1F0401CC0F30B00B7E7A08601006B
:100A200080841E0000093D0040420F00704770475F
:100A3000704770477047000010B586B000210091E4
:100A40000191029103910068174988422AD1174CFD
:100A5000A06940F00800A061A069694600F00800A4
:100A60000490C020009012200190032003901048B1
:100A7000FFF796FCE06940F40010E061E0690022B5
:100A800000F40010049001211F2000F07BF81F20CB
:100A900000F06AF800220121202000F073F82020E5
:100AA00000F062F806B010BD005400400010024093
:100AB000000C014070477047024881680278114479
:100AC0008160704700000020074810B5016841F0C0
:100AD00010010160032000F075F80F2000F006F807
:100AE00000F024F8002010BD0020024070B50D4D2C
:100AF00004464FF47A712878B1FBF0F00A4909688E
:100B0000B1FBF0F000F0DCFA48B9102C07D200225B
:100B10002146501E00F036F800206C6070BD0120A8
:100B200070BD0000000000200C0000200C4808B53B
:100B3000816941F001018161816901F00101009148
:100B4000C16941F08051C161C06900F080500090DE
:100B50000448416821F0E06141F00071416008BD46
:100B60000010024000000140002809DB00F01F02D5
:100B7000012191404009800000F1E020C0F80011FF
:100B800070470000F0B40E4B1B680C46C3F3022301
:100B9000C3F10705042D00D90425191D072901D229
:100BA000002300E0DB1E012606FA05F1491E214064
:100BB00099409E40761E16403143F0BC02F03DBB8A
:100BC0000CED00E0064900F0070208684FF6FF034D
:100BD000184040EA0220034A1043086070470000B2
:100BE0000CED00E00000FA052DE9F0470F46050086
:100BF00061D0434E306800F00700B84209D2306837
:100C000020F0070038433060306800F00700B84239
:100C100051D128683B4C810712D5400703D5606845
:100C200040F4E06060602878000703D5606840F415
:100C3000605060606068A96820F0F0000843606060
:100C40002878C00728D06868012810D021680228B9
:100C500010D0890700292EDA616821F003010143D1
:100C60006160FFF79BFC804641F288390DE0216806
:100C70008903EFE78901EDE7FFF790FCA0EB08019E
:100C8000494502D90320BDE8F0876068696800F033
:100C90000C00B0EB810FEFD1306800F00700B842D4
:100CA0000BD9306820F0070038433060306800F01E
:100CB0000700B84201D00120E5E72878400705D5B4
:100CC0006068E96820F4E060084360602878000705
:100CD00006D56068296920F4605040EAC100606070
:100CE00000F038F86168084AC1F30311515CC8404C
:100CF0000649086006480068FFF7F8FE0020C2E7D2
:100D00000020024000100240383800080C0000208B
:100D1000040000200448054900684968044AC1F3FA
:100D20000221515CC84070470C00002000100240B6
:100D3000483800080448054900684968044AC1F376
:100D4000C221515CC84070470C00002000100240D6
:100D5000483800080E4A51680E4801F00C03042B75
:100D600011D0082B0FD10C48C1F38343C903C05CD9
:100D70000AD55168084AC1F34041921E515C054AA8
:100D80005043B0FBF1F070470449484370470000FE
:100D90000010024000127A002838000800093D00C7
:100DA0002DE9F84F040070D02078C04DC00749D01D
:100DB0006868C0F38100012807D06868C0F381002B
:100DC000022809D16868C00306D52868800339D590
:100DD00060680028E7D035E06068B0F5803F0BD050
:100DE00010B1B0F5A02F11D0286820F48030286011
:100DF000286820F4802002E0286840F480302860D1
:100E0000606890B1FFF7CAFB06460AE0286840F424
:100E100080202860F0E700BFFFF7C0FB801B64283C
:100E200073D828688003F7D50CE0FFF7B7FB0646B8
:100E300005E000BFFFF7B2FB801B6428F0D82868EC
:100E40008003F7D420789A4E80074FF001094FF0C5
:100E5000000839D5686810F00C0F07D06868C0F337
:100E60008100022809D16868C00306D42868800779
:100E700014D52069012808D110E02069B0B1C6F866
:100E80000090FFF78BFB074605E00AE1FFF786FBC2
:100E9000C01B0228C4D828688007F7D52868616974
:100EA00020F0F80040EAC10028600DE0C6F800809C
:100EB000FFF774FB074604E0FFF770FBC01B022836
:100EC00023D828688007F7D4207800072CD57948E4
:100ED000A169D9B1C0F80090FFF760FB074604E0B4
:100EE000FFF75CFBC01B02280FD8686A8007F7D5A4
:100EF00071484FF4FA510068B0FBF1F0009000BF68
:100F00000098411E0091FAD20EE080E0C0F8008007
:100F1000FFF744FB074604E0FFF740FBC01B022835
:100F200075D8686A8007F7D42078400760D5E869EB
:100F30000027C00008D4E86940F08050E861E86903
:100F4000012700F0805000905C480168C90513D467
:100F50000168834641F480710160FFF71FFB824600
:100F600006E000BFFFF71AFBA0EB0A0064284ED88A
:100F7000DBF80000C005F5D5E06801280AD008B10B
:100F8000052813D0286A20F001002862286A20F082
:100F9000040002E0286A40F001002862E06841F2A3
:100FA000883B98B1FFF7FAFA82460BE0286A40F0D6
:100FB00004002862EEE700BFFFF7F0FAA0EB0A0199
:100FC00059455AD8286A8007F6D50CE0FFF7E6FAAB
:100FD000824605E0FFF7E2FAA0EB0A0159454CD83A
:100FE000286A8007F6D41FB1E86920F08050E861D4
:100FF000E06988B36968C1F38101022944D00228FD
:10100000C6F8608004D0FFF7C9FA044638E034E03F
:10101000FFF7C4FA074604E0FFF7C0FAC01B022836
:101020002BD828688001F7D4206AB0F5803F05D11D
:101030006868A16820F4003008436860D4E90801BA
:101040000843696821F4741108436860C6F8609029
:10105000FFF7A4FA044606E025E000BFFFF79EFA7A
:10106000001B022809D828688001F7D51BE000BFC3
:10107000FFF794FA001B022802D90320BDE8F88F7D
:1010800028688001F4D40EE00128F7D06868226A4D
:1010900000F48031914204D1616A00F470108842FA
:1010A00001D00120EAE70020E8E70000001002403C
:1010B00000004242800442420C00002000700040C8
:1010C00010B5401EB0F1807F01D3012010BD4FF05C
:1010D000E02460610F21601702F0AFF80020A061EA
:1010E00007202061002010BD7047704770B590F850
:1010F0003C20012A26D0012480F83C40022280F8BE
:101100003D2003685A689D6822F070060A683243E1
:101110005A600D4B02689A4208D0B2F1804F05D058
:101120000A4B9A4202D00A4B9A4204D1496825F0F0
:1011300080031943916080F83D40002180F83C1005
:10114000084670BD022070BD002C01400004004024
:101150000008004010B5040003D094F83D0010B121
:1011600007E0012010BD002084F83C00204600F07C
:101170001FF8022084F83D00211D206801F0DEFDEB
:10118000012084F8460084F83E0084F83F0084F88B
:10119000400084F8410084F8420084F8430084F859
:1011A000440084F8450084F83D00002010BD000094
:1011B00000B585B0002100910191029103912D4A63
:1011C00001682D48914234D1816941F40061816107
:1011D000816901F400610491816941F00401816138
:1011E0008069694600F0040004909015009023483F
:1011F000FFF7D6F8002201211820FFF7C3FC1820C2
:10120000FFF7B2FC002201211920FFF7BBFC1920D7
:10121000FFF7AAFC002201211A20FFF7B3FC1A20D5
:10122000FFF7A2FC002201211B20FFF7ABFC1B20D3
:1012300013E0B1F1804F14D0114A91420FD1C1692E
:1012400041F00201C161C069002200F00200049077
:1012500001211D20FFF796FC1D20FFF785FC05B03E
:1012600000BDC16941F00101C161C06900F0010028
:101270000490F4E7002C01400010024000080140F7
:101280000004004070B5044690F83C000025012899
:1012900017D0012684F83C60022084F83D002068C5
:1012A000826822F0770222F47F4282600868502828
:1012B00038D00DDC20284FD005DC90B3102811D198
:1012C0004AE0022070BD302846D040280AD13BE0D9
:1012D00060282FD070280DD0B0F5805F03D0B0F516
:1012E000005F12D0012584F83D60002084F83C00A6
:1012F000284670BDCB68D1E90121206801F067FD67
:101300002068816841F0770109E0CB68D1E90121CB
:10131000206801F05CFD2068816841F480418160B3
:10132000E1E719E0CA684968206801F005FE50212C
:10133000206806E0CA684968206801F03BFE602129
:10134000206801F04EFDCEE7CA684968206801F0C8
:10135000F3FD40212068F4E7226801461046F0E7DB
:1013600070B500682249884240D1224CE07A0106DB
:1013700036D4214D410610D540F08000E0720021A6
:10138000284600F047FBA0832868016A21F00A0183
:1013900001622868016A016222E00021A1834020E5
:1013A000E0722868026A41F211131A4207D1026AF8
:1013B0009B101A4203D1026822F0010202602868E1
:1013C00041622868016A21F00A0101622868016A05
:1013D00041F0020101622868016841F001010160E9
:1013E000BDE870400021044800F0C8B870BD00009E
:1013F000002C014010000020AC0000202DE9F0413D
:10140000054690F83C0000260C46012810D001202B
:1014100085F83C0072B1042A1CD0082A2CD00C2A72
:1014200050D00126002085F83C003046BDE8F08110
:101430000220FBE7D4E90012E368286801F08EFD82
:101440002868816921F00C01816128688169A2689E
:1014500011430FE0D4E90012E368286801F0BCFDF5
:101460002868816921F44061816128688169A268E6
:1014700041EA02218161D5E72868D4E9002C277B65
:10148000036A016A21F480710162C16923F4007367
:1014900021F0030141EA0C0121F0F00C39074FF46F
:1014A00000774CEA116107EA02221A43C161026225
:1014B0002868C16921F00C01C1612868C169A2686E
:1014C00011432BE02868D4E90021E768036AD0F8CB
:1014D00020C02CF4805CC0F820C0D0F81CC023F4DD
:1014E00000532CF4407C4CEA012121F4704C4FF65F
:1014F000FF7101EA07314FF4005741EA0C0107EA96
:1015000002321A43C16102622868C16921F4406154
:10151000C1612868C169A26841EA0221C16181E70D
:1015200010B5040003D094F83D0010B107E001208D
:1015300010BD002084F83C00204600F01EF8022078
:1015400084F83D00211D206801F0F8FB012084F89B
:10155000460084F83E0084F83F0084F8400084F898
:10156000410084F8420084F8430084F8440084F881
:10157000450084F83D00002010BD704730B504469A
:10158000002551B104290DD0082910D094F841004C
:1015900094F84520012811D10EE094F83E0094F80B
:1015A0004220F7E794F83F0094F84320F2E794F8DC
:1015B000400094F84420EDE7012A01D0012030BD1D
:1015C000022059B1042912D0082919D084F8410009
:1015D00084F845000C2938D0012534E084F83E0019
:1015E00084F842002068C26842F0020210E084F8E9
:1015F0003F0084F843002068C26842F0040207E01C
:1016000084F8400084F844002068C26842F0080270
:10161000C2600122206801F0CDFB0E49206888429B
:1016200008D0B0F1804F05D00B49884202D00B4959
:10163000884204D1816801F00701062903D00168BE
:1016400041F001010160284630BD2068C26842F0C7
:101650001002DDE7002C01400004004000080040BB
:101660002DE9F04104460068C66805694FF000079F
:10167000A90713D5B10711D5F91E01610120207703
:10168000206880698007204602D0FFF769FE04E0E9
:1016900000F0C0F8204600F052F92777680716D509
:1016A000700714D521686FF00400086102202077CC
:1016B0002068806910F4407F204602D0FFF750FE7A
:1016C00004E000F0A7F8204600F039F92777280752
:1016D00015D5300713D521686FF008000861042084
:1016E00020772068C0698007204602D0FFF738FEC7
:1016F00004E000F08FF8204600F021F92777E80693
:1017000016D5F00614D521686FF010000861082086
:1017100020772068C06910F4407F204602D0FFF790
:101720001FFE04E000F076F8204600F008F9277765
:10173000E80708D0F00706D021686FF001000861C3
:10174000204600F04BF9280608D5300606D521685A
:101750006FF0800008612046FFF7C6FC680608D5D8
:10176000700606D521686FF040000861204600F041
:1017700066F9A8060AD5B00608D521686FF02000E2
:1017800008612046BDE8F041FFF7AFBCBDE8F0813D
:1017900010B586B00021009101910291039100687B
:1017A000B0F1804F2BD11748816941F0040181616C
:1017B000816901F004010491816941F008018161AE
:1017C0008069022400F0080004900320CDE90004A1
:1017D00069460D480394FEF7E3FD4FF44060CDE900
:1017E0000004694609480394FEF7DAFD0848416899
:1017F00021F4407141F0E06141F40071416006B0B4
:1018000010BD00000010024000080140000C014023
:1018100000000140704770B5044690F83C00002677
:101820000D4601280FD0012084F83C006AB1042A3B
:101830001DD0082A2FD00C2A3FD00126002084F882
:101840003C00304670BD022070BD206801F0D2FA25
:101850002068816941F0080181612068816921F077
:1018600004018161206881692A69114311E02068BF
:1018700001F0E8FA2068816941F400618161206823
:10188000816921F480618161206881692A6941EA66
:1018900002218161D2E7206801F000FB2068C16964
:1018A00041F00801C1612068C16921F00401C161F2
:1018B0002068C1692A69114311E0206801F01AFB10
:1018C0002068C16941F40061C1612068C16921F4E7
:1018D0008061C1612068C1692A6941EA0221C16150
:1018E000ACE710B5040003D094F83D0010B107E058
:1018F000012010BD002084F83C00204600F01EF8B6
:10190000022084F83D00211D206801F017FA012013
:1019100084F8460084F83E0084F83F0084F84000D4
:1019200084F8410084F8420084F8430084F84400BD
:1019300084F8450084F83D00002010BD70477047D2
:1019400010B50446022249B104290ED0082913D04B
:1019500094F84100012816D0012010BD94F83E00F3
:101960000128F9D184F83E200FE094F83F000128C7
:10197000F2D184F83F2008E094F840000128EBD130
:1019800084F8402001E084F841200122206801F021
:1019900011FA0F492068884203D1426C42F4004298
:1019A00042642068884208D0B0F1804F05D00949D0
:1019B000884202D00849884204D1816801F00701B9
:1019C000062903D0016841F001010160002010BD2B
:1019D000002C0140000400400008004000680B4952
:1019E00088420AD10A49C87A020606D4420604D5BA
:1019F000C243920602D0401CC872704740F080007B
:101A0000C8724FF6FF70888370470000002C0140B9
:101A1000100000200246002041B1042909D0082905
:101A20000AD00C2901D11068006C70471068406B17
:101A300070471068806B70471068C06B70477047C4
:101A400070477047F8B5016804460868CA684B6972
:101A500010F00F0F4FF0000559D003F0010602F40B
:101A60009077374365D0C10705D0D10503D5616CA8
:101A700041F001016164410705D5D90703D0616CCC
:101A800041F002016164810705D5D90703D0616C7B
:101A900041F004016164010707D502F020013143E0
:101AA00003D0616C41F008016164616C00293AD097
:101AB000800604D5900602D5204601F0D7FA2068AA
:101AC0004069616CC0F38010090700D460B3204600
:101AD00001F0A5FA20684069400621D5206814303D
:101AE00050E8001F21F0400140E80012002AF5D123
:101AF000E06BA8B16D494163E06BFEF7EFFB002896
:101B000011D0E06B416B01B0BDE8F040084783069F
:101B10000FD593060DD52046BDE8F84001F0A6BAD2
:101B20002046FFF78EFFF8BD2046FFF78AFF656469
:101B3000F8BD266B2023012E7CD1C6067AD5D606A9
:101B400078D508684868009048694FF0020640065A
:101B500040D5E16B086840680004000CE8D0A28D15
:101B60008242E5D9E085886920282DD020680C3094
:101B700050E8001F21F4807140E80012002AF5D1DE
:101B80002068143050E8001F21F0010140E80012E5
:101B9000002AF5D12068143050E8001F21F04001E0
:101BA00040E80012002AF5D184F84230256320680D
:101BB0000C3050E8001F21F0100140E80012002A0C
:101BC000F5D1E06BFEF767FB6663A08DE18D401AEF
:101BD00081B22AE0A08DE18D401A81B2E08D00280B
:101BE000A6D00029A4D022680C3252E8000F20F4BD
:101BF000907042E80007002FF5D12068143050E8BB
:101C0000002F22F0010240E80027002FF5D184F8D0
:101C10004230256320680C3050E8002F22F010027B
:101C200040E80023002BF5D166632046FFF708FF4C
:101C3000F8BDFFE705062BD5150629D594F8410018
:101C40002128F5D1A068B0F5805F01D12069B0B13D
:101C5000206A411C2162216800784860E08C401EA7
:101C60000004000CE084E3D12068C16821F0800109
:101C7000C1602068C16841F04001C160D8E7206AB6
:101C80000088C0F308004860206A801C2062E5E7F5
:101C90004006CDD55006CBD5CA68204622F040027A
:101CA000CA6084F8413000F0E1F8C1E70F30000865
:101CB00070B5040004D094F84100002510B106E08E
:101CC000012070BD84F84050204600F023F8242005
:101CD00084F841002068C16821F40051C1602046A9
:101CE00001F026FA2068016921F490410161206821
:101CF000416921F02A0141612068C16841F4005125
:101D0000C1606564202084F8410084F84200656366
:101D1000002070BD70B586B0002400940194029438
:101D200003942E4E03682E49022003222D4DB34208
:101D300026D18B6943F480438B618B6903F4804324
:101D400004938B6943F004038B618969039201F06A
:101D5000040104910102CDE9001069462846FEF70E
:101D60001FFB2815CDE90004694628460294FEF7BA
:101D700017FB002211462520FEF704FF252028E04E
:101D8000194EB34227D1CB6943F40033CB61CB6901
:101D900003F4003304938B6943F004038B61896976
:101DA000039201F0040104910421CDE90010694679
:101DB0002846FEF7F5FA0820CDE9000469462846D2
:101DC0000294FEF7EDFA002211462620FEF7DAFE15
:101DD0002620FEF7C9FE06B070BD000000380140A5
:101DE00000100240000801400044004090F84230DA
:101DF000202B01D00220704721B11AB100230363C8
:101E000001F0F2B90120704770B50546006810492D
:101E1000104E114C88420CD1306860620F4A217913
:101E2000E0785054491C21710122E11C0C48FFF755
:101E3000DDFF0C492868884209D130686062BDE83E
:101E4000704005490122491D0748FFF7CFBF70BD0B
:101E5000003801400800002010000020140200207B
:101E60008401002000440040CC0100207047FEE7C0
:101E70000148FEF79BBB0000580000200148FEF718
:101E8000F7BB00005800002038B5406A002190F8E8
:101E90003D202B4B46F2A8141B68B3FBF4F3C3EBB5
:101EA000C30303EB830300933BB15B1E0093036802
:101EB0001B689B0505D5009BF6E7036C43F02003E8
:101EC0000364436B03B19962836B03B19962036846
:101ED0001C6824F480641C604185436B03B1596322
:101EE000836B03B1596303681C6824F001041C6010
:101EF00090F83D402023602C0BD0282434EA0202C5
:101F00000FD080F83D3080F83E1000BFFEF7C8FCCF
:101F100038BD80F83D3080F83E100164FEF744FB88
:101F200038BD0268136843F0010313600268136848
:101F300043F480631360016380F83D40E6E70000EE
:101F40000C00002000684169C943090601D4002142
:101F50000161704770B5044690F83D0094F83E105A
:101F6000102901D0402906D1222804D121680A680D
:101F700022F400620A60282131EA00024FF00005D5
:101F80004FF0200626D021684968090505D460284D
:101F900003D084F83D6084F83E5025632068416892
:101FA000090537D5416821F400614160606B90F804
:101FB00021203C49012A11D04163606BFEF78EF964
:101FC00038B32068016821F00101016084F83D60A8
:101FD000606B1CE0256384F83D10DFE7A06B416374
:101FE000A06BFEF77BF9A0B120684169C94349069F
:101FF00005D40069616A0870606A401C60622068EC
:10200000016821F00101016084F83D60A06B416B23
:10201000884710E094F83D10602910D04169C94309
:10202000490605D40069616A0870606A401C6062F4
:102030002046FEF735FC206CC1071CD115E084F862
:102040003D6025644169C943490605D40069616A58
:102050000870606A401C60622068016821F001011C
:1020600001602046FEF7A0FAE5E7810703D44107A7
:1020700001D4000704D52068416821F4E061416083
:1020800094F83D00216C49070BD5282809D1064852
:10209000E062256384F83D6084F83E502046FEF7F8
:1020A000C5FC70BD891E00080000FFFF10B5C26AA4
:1020B000438D0168042B06D0438D032B08D0438D3C
:1020C000022B1DD012E04A6822F480624A600CE0C4
:1020D0004B6823F480634B60042A06D0022A04D0A4
:1020E00001680A6822F480620A6001680969426A2C
:1020F0001170416A491C4162418D491E418510BDE4
:10210000012A34D0102A32D0042A34D0022A32D004
:102110000B6843F400730B6001680969436A197026
:10212000416A491C4162438D5B1E438503681B69FC
:102130000B70416A491C4162418D491E418501680D
:102140004B6823F440734B60202180F83D1090F8D9
:102150003E300021402B80F83E1010D0082A02D0DB
:10216000202A00D012210163FEF761FC10BD0B682C
:1021700023F48063CFE70B6843F48063CBE701630C
:10218000FEF757FC10BD000038B590F83D1022292D
:1021900010D1C36A418D03290DD901680969426ACA
:1021A0001170416A491C4162418D491E4185418D32
:1021B000032906D038BDC26A022A02D0012906D0FE
:1021C00029B10068416821F48061416038BD2A4A24
:1021D00046F2A81400211268B2FBF4F202EB82026C
:1021E000009202682024009D6D1E009526D015687F
:1021F000AD05F8D4156825F480651560026855684A
:1022000025F4E065556002681269456A2A70426AE1
:10221000521C4262428D521E428580F83D4090F829
:102220003E2080F83E10402A21D0082B02D0202BDF
:1022300000D012210163FEF7FAFB38BD036C43F0B6
:1022400020030364536823F4E06353600268126957
:10225000436A1A70426A521C4262428D521E428583
:1022600080F83D4080F83E10FEF71AFB38BD016350
:10227000FEF7DFFB38BD00000C00002010B5C26A7D
:1022800090F83D1021290BD1418D51B1416A02686E
:1022900009781161416A491C4162418D491E41859D
:1022A00010BD20230021082A13D0202A11D012F5B6
:1022B000803F0ED00268546824F4E0645460112218
:1022C000026380F83E1080F83D3000BFFEF7B0FB9F
:1022D00010BD0268546824F4E06454600268146815
:1022E00044F400741460016380F83D3090F83E209F
:1022F00080F83E10402AE9D1FEF79CFB10BD00009B
:1023000010B590F83D1090F83E30C26A048DB4B11B
:10231000212903D0402B11D122290FD1418DE1B3C6
:1023200090F83E10402942D0416A02680978116154
:10233000416A491C4162418D491E418510BD2129D8
:10234000E8D120230021082A13D0202A11D012F529
:10235000803F0ED00268546824F4E0645460112277
:10236000026380F83E1080F83D3000BFFEF760FB4E
:1023700010BD0268546824F4E06454600268146874
:1023800044F400741460016380F83D3090F83E20FE
:1023900080F83E10402AE9D100E002E0FEF74AFB57
:1023A00010BD0068416821F48061416010BDBDE846
:1023B000104000F0F3B8000078B590F83E50C26AC3
:1023C000046B90F83D6000230168222E73D1066DE6
:1023D0000EB9402D6FD0056D1DB90569B5F5404F9B
:1023E0001BD0458D95B3468D484D012E20D0448D90
:1023F000022C4DD00C6844F480640C6001684C6879
:10240000240579D5AA4273D0012A71D0082A6FD049
:10241000102A6DD0202A6BD06EE04A698A6900923A
:102420000A6842F480720A60016D491C016578BD3A
:10243000AA4214D10A6822F480620A6001684A68DC
:10244000120504D50A6822F4806217E0FFE74A69A2
:102450008A6900920A6842F400720A6050E0082A11
:1024600010D0202A0ED0122C0AD0042A03D0022A1F
:1024700001D0102AE6D10A6842F480620A603BE08B
:10248000012ADFD00A6822F480620A600168DEE770
:10249000042A11D0022A0FD0102A0DD00C6844F45F
:1024A00000640C6001684C698C6900940C6824F429
:1024B00080640C6008E025E00C6844F480640C60E3
:1024C00001684C698969009101684C68240517D539
:1024D000AA4207D0012A05D0082A03D0102A01D029
:1024E000202A0DD14A6842F480524A6008E0FFE792
:1024F0004A6842F480524A6001684A6989690091D9
:10250000036578BD48698869009078BD0000FFFFC9
:1025100090F83E10402910D00169B1F5804F19D0D4
:10252000016DA9B3016D012910D1416C5FF0F10279
:1025300001F4407142EAD11106E0016D0029416CBD
:1025400005D0C9B241F0010100680161704701F096
:10255000FE01F9E790F83D102129416C09D0C9B27C
:1025600041F0010102681161416B29B1896A49B9E1
:1025700002E001F0FE01F5E7816B0029E6D0896AEF
:102580000029E3D00068416841F400614160704770
:10259000FFE7416CF02201F44071CBE710B590F8F1
:1025A0003D10026D4AB1026D012A14D0026D022A5B
:1025B00016D0BDE81040FFF7C5BCC16C0129816C85
:1025C00002D0C1F3072108E00268C9B21161016DB0
:1025D000891C016510BD816CC9B20268116123E0DC
:1025E00022291CD0428D0AB1212920D0428D002AF7
:1025F000F0D12129EED101684A6822F4E0624A60F4
:1026000001680A6842F400720A6000210163202216
:1026100080F83D2080F83E10FEF70CFA10BD0168EE
:102620000A6842F480720A60016D491CD1E7416A70
:10263000026809781161416A491C4162418D491E55
:10264000418510BD38B50C4690F83D200021282565
:10265000954302680B4605D051699169009180F855
:102660003C3038BD556825F480655560E243540719
:1026700000D50121120601D5828900E0028B80F885
:102680003C3092B2FDF791FF38BD00002DE9F041DA
:1026900090F83D300446C26A002120261E4F006893
:1026A0006FF48065082A01D0202A01D1282B04D09C
:1026B000212B17D04561BDE8F081E762426822F422
:1026C000E0624260206845612068026822F480620E
:1026D0000260216384F83D6084F83E102046FEF7D6
:1026E000A5F9E8E7E7622122226384F83D6084F8D7
:1026F0003E10416821F4E061416020684561206836
:10270000016821F4806101602046FFF71BFC204630
:10271000FEF7D1F9CFE700000000FFFFF8B590F811
:102720003D6004460068416821F4E0614160206832
:10273000002541690091016841F0010101602068B4
:10274000016821F48061016020684168090520D595
:10275000474F222E48D02A2E46D0616B096849681F
:102760006185618D19B1216C41F0040121644168DA
:1027700021F400614160606BFDF7FCFD012808D089
:10278000606B4763606BFDF7A9FD10B1606B416B37
:102790008847608D08B320684169C943490708D458
:1027A0000069616A0870606A401C6062608D401E4A
:1027B000608520684169C943490608D40069616A97
:1027C0000870606A401C6062608D401E6085608D8C
:1027D00018B1206C40F004002064206C00B3204647
:1027E000BDE8F840FFF7B6BBA16B09684968618591
:1027F000618D19B1216C41F004012164416821F41B
:1028000000614160A06BFDF7B5FD0128C1D0A06B50
:102810004763A06BFDF762FD0028BAD0A06BB6E756
:102820002A2E06D12563282084F83D002046FEF795
:1028300041F994F83D10202028290DD0216B222940
:1028400001D0222E07D1256384F83D0084F83E5044
:102850002046FEF72FF9F8BD0649E162256384F8AA
:102860003D0084F83E502046FEF7E0F8F8BD000039
:10287000891E00080000FFFF2DE9F04786B0002404
:1028800030480094019402940394816941F010014E
:102890008161816901F010010491816941F0200199
:1028A0008161816901F020010491816941F0040195
:1028B0008161816901F004010491816941F008019D
:1028C00081618069012200F00800DFF87C905503E7
:1028D000049029464846FDF75BFE6F00002239460A
:1028E0004846FDF755FEDFF864A04FF4004800228B
:1028F00041465046FDF74CFE009502260125039601
:10290000CDE9015469464846FDF74AFDCDE9007519
:102910000327CDE9024769464846FDF741FDCDF85A
:1029200000800397CDE9015469465046FDF738FD14
:1029300028038DE8510069460548FDF731FD06B0D2
:10294000BDE8F0870010024000100140000C01407B
:10295000000801400D4810B50B4901600C49416069
:1029600000214FF480428160C0E90312416181611E
:10297000C1610162FDF796FF002803D0BDE8104059
:10298000FDF787BC10BD0000005400405800002037
:10299000A086010010B58AB0002423480494059451
:1029A00006940794089409940094019402941D4994
:1029B000039401604721C0E901144FF6FF71C0E99B
:1029C000031444618461FEF7C5FB08B1FDF761FCA7
:1029D0004FF48050049004A91348FEF753FC08B14B
:1029E000FDF757FC1048FEF79BFD08B1FDF751FCC1
:1029F000089408A90C480994FEF778FB08B1FDF784
:102A000048FC0120CDE900400294002269460648B6
:102A10000394FEF7F3FC002801D0FDF73AFC0AB05E
:102A200010BD0000002C0140AC00002010B58EB09D
:102A300000240794089409940A940B941C21684676
:102A40000C94FDF7C1FB2A484FF0804101604721FB
:102A5000C0E9011444F61F61C0E9031480218161BB
:102A6000FEF778FB08B1FDF714FC4FF48050079097
:102A700007A91F48FEF706FC08B1FDF70AFC1C4831
:102A8000FEF72FFF08B1FDF704FC0B940BA91848C3
:102A90000C94FEF72BFB08B1FDF7FBFB6020CDE9A2
:102AA000000402940022694611480494FEF7B3FE24
:102AB00008B1FDF7EEFB042269460D48FEF7ABFEB8
:102AC00008B1FDF7E6FB082269460948FEF7A3FEB8
:102AD00008B1FDF7DEFB0C2269460548FEF79BFEB8
:102AE00008B1FDF7D6FB0248FEF752FE0EB010BD4E
:102AF000F400002010B586B000241748009401941B
:102B00000294039404941349059401604721C0E999
:102B100001144FF6FF71C0E903148461FEF71AFB3C
:102B200008B1FDF7B6FB4FF48050009069460A48A3
:102B3000FEF7A8FB08B1FDF7ACFB049404A9064816
:102B40000594FEF7D3FA002801D0FDF7A2FB06B0EA
:102B500010BD0000000400403C0100200C4810B5EE
:102B60000A4901604FF4E1314160002181600C228B
:102B7000C160C0E904128161C161FFF799F80028C2
:102B800003D0BDE81040FDF784BB10BD0038014004
:102B9000840100200C4810B50A4901604FF4E1316E
:102BA0004160002181600C22C160C0E90412816192
:102BB000C161FFF77DF8002803D0BDE81040FDF7A4
:102BC00068BB10BD00440040CC010020FEE7FEE7DA
:102BD000704700002DE9F041064617460C4618469E
:102BE00000F0B4FC104900F0DDFC104900F06AFB75
:102BF0000F4900F0C9FB0546384600F0BFFC2946E6
:102C000000F0D0FC00F082FC81B2306834B1042CBA
:102C100006D0082C06D00164BDE8F0814163FBE7D3
:102C20008163F9E7C163F7E7D3BC633D0000F0407F
:102C30000000C8427047000010B5002344F620642D
:102C4000224619460B48FFF7C5FF00232246042100
:102C50000848FFF7BFFF0023224608210548FFF779
:102C6000B9FF22460023BDE810400C210148FFF7C0
:102C7000B1BF0000F400002007480188491C89B258
:102C80000180B1F57A7F05D300210180034988785E
:102C9000401C8870FDF710BF540000202E0000205B
:102CA00030B58FB028216846FDF78EFA14210AA8A6
:102CB000FDF78AFA01210804CDE9001000240294EE
:102CC00002250491CDE907504FF4E01009906846C1
:102CD000FEF766F808B172B6FEE70F20CDE90A05E7
:102CE0004FF48060CDE90C4002210AA80E94FDF754
:102CF0007BFF002801D072B6FEE70FB030BD7047F1
:102D00000148FEF7ADBC0000AC0000200148FEF712
:102D1000A7BC0000AC0000200148FEF7A1BC0000E9
:102D2000AC0000200148FEF79BBC0000AC00002076
:102D30000148FEF795BC00003C010020F0B5026898
:102D4000194B1A4C1A4D4FF08047984205D0B842A3
:102D500003D0A04201D0A84203D122F070064A68F5
:102D60003243984205D0B84203D0A04201D0A842D5
:102D700003D122F44074CA6822434C6922F08002D5
:102D8000224302608A68C2620A688262984201D164
:102D900009690163012141610169C90703D0016922
:102DA00021F001010161F0BD002C01400004004050
:102DB0000008004010B501F01F030121046A99408A
:102DC0008C430462016A9A401143016210BD10B540
:102DD000846842EA032224F47F440A432243826047
:102DE00010BD826822F070020A4342F00701816040
:102DF0007047000030B5036A026A22F001020262E5
:102E00004268846924F073050C682C4323F00205A2
:102E10008B682B430A4DA8420BD123F00805CB68E1
:102E200022F440722B434D6923F0040315438A6951
:102E30002A434260846149684163036230BD0000F7
:102E4000002C014030B5026A036A23F010030362CC
:102E5000436884690D6824F4E64444EA05248D68D7
:102E600022F0200242EA05120B4DA8420ED1CD6895
:102E700022F0800242EA05124D6923F4406343EADE
:102E800085038D6922F0400243EA85034360846133
:102E900049688163026230BD002C014030B5036A8D
:102EA000026A22F4807202624268C46923F40073E9
:102EB00024F073050C682C438D6843EA05230C4D00
:102EC000A8420ED1CD6823F4006343EA05234D697F
:102ED00022F4405242EA05128D6923F4806342EAEB
:102EE00005124260C4614968C163036230BD0000DD
:102EF000002C014030B5046A026A22F4805202625A
:102F00004268C3690D6823F4E64343EA05238D68EC
:102F100024F4005444EA0534064DA84204D14D6916
:102F200022F4804242EA85124260C361496801642A
:102F3000046230BD002C014010B5036A046A24F01D
:102F400001040462846924F0F00444EA021423F0CA
:102F50000A020A438461026210BD000070B5056A6E
:102F6000046A24F00104046284690F4EB04208D060
:102F7000B0F1804F05D00D4EB04202D00C4EB042A1
:102F800003D124F00304144301E044F001041A07C0
:102F900024F0F00444EA126225F00A0301F00A0169
:102FA00019438261016270BD002C014000040040A1
:102FB0000008004010B5036A046A24F0100404629B
:102FC000846923F0A00324F4704444EA023243EA03
:102FD00001118261016210BD30B5046A056A25F0F5
:102FE00010050562856925F4407545EA022222F440
:102FF00070454FF6FF7202EA033224F0A0032A4321
:10300000A02404EA011119438261016230BD10B5A8
:10301000406A0021C185C184FEF713FD10BD01681F
:103020000C3151E8002F22F4907241E80023002B6C
:10303000F5D10168143151E8002F22F0010241E876
:103040000023002BF5D1016B012909D101680C3156
:1030500051E8002F22F0100241E80023002BF5D1A7
:10306000202180F8421000210163704708B590F8D4
:103070004210222901D0022008BD82684FF48053FB
:103080009A4201D1016921B1816A9A421BD04AB1A9
:103090000AE00268816A5268C2F308020A80816A03
:1030A000891C08E0026972B10268526802F07F026E
:1030B0000A70816A491C8162C18D491E0904090C8C
:1030C000C18503D01BE002685268F1E70168CA6855
:1030D00022F02002CA600168CA6822F48072CA60C5
:1030E00001684A6922F001024A61202180F84210F9
:1030F00000214163026B012A03D0FEF785FE002008
:1031000008BD016301680C3151E8002F22F0100264
:1031100041E80023002BF5D101680A68D20602D5E8
:103120000A6849680091818DFEF78AFCE7E7000094
:1031300070B5044600680169E26821F4405111430A
:1031400001612169A0680843616908432168CA6870
:1031500041F20C639A430243CA6020684169A26944
:1031600021F44071114341611E492068884202D117
:10317000FDF7E0FD01E0FDF7CDFD00EBC00101EB47
:103180000012606864218000B2FBF0F3B3FBF1F33E
:103190006FF018067343B2FBF0F5B2FBF0F605EBE7
:1031A0008305322303EB0515B5FBF1F5B6FBF1F60C
:1031B00005F0F00505EB0615B2FBF0F6B2FBF0F0FA
:1031C000B0FBF1F06FF01802504306EB800003EB08
:1031D0000010B0FBF1F0216800F00F002844886077
:1031E00070BD00000038014081628285C2850021E7
:1031F0004164222180F84210016921B10168CA6846
:1032000042F48072CA6001684A6942F001024A6170
:103210000068C16841F02001C160002070470000D3
:103220000148FEF70FBC0000840100200148FEF7B2
:1032300009BC0000CC010020FEE70907090E0028A8
:1032400004DB00F1E02080F80014704700F00F006C
:1032500000F1E02080F8141D70470000FDF734FCF9
:10326000FFF71EFDFFF708FBFFF774FBFFF792FB6C
:10327000FFF7DCFBFFF73EFCFFF770FCFFF78AFC73
:1032800000210E48FEF75CFB04210C48FEF758FBBA
:1032900008210A48FEF754FB0C210848FEF750FBB2
:1032A000FFF7CAFC064D4FF4005421462846FDF7AF
:1032B00067F9C820FDF762F8F7E70000F400002086
:1032C0000010014090EA010F48BF81F0004100F179
:1032D0003C82421A3CBF801A89184FEAD0524FF004
:1032E0007F4C1CEA410FA2EBD15318BF9CEA026F3E
:1032F00000F03B804FF0004C4CEA00204CEA0121EA
:1033000021FA03FC10EB0C0C1ED202F1FF325FEA33
:103310001C2040EBC25038BF70471CF07F0F4FEAB3
:10332000400C18BFBCF17F4F38BF7047C3F120037A
:10333000994008BF20F00100BCF17F4F38BF7047B3
:10334000A0F1C04000F0F5B94FEA3C00000A40EBA4
:10335000C25028BF1CF0FF0F4FEA400CE6D018BF48
:10336000BCF17F4F38BF7047EAE79CEA026F05D097
:1033700010EA5C0F08BF00F00040704710B500F085
:1033800092F900BF64FBBE3E4FF47F0C1CEAD012E2
:103390001EBF1CEAD11392EA0C0F93EA0C0F00F047
:1033A000858090EA010F48BF42F4807240F4000C1F
:1033B00041F400002CF07F4120F07F4000B58142B5
:1033C000A2EB03020FF2081CACEB504EC0F1000060
:1033D0009EF800E04FEA4E0E00FB0EFC38BF49009D
:1033E0004FEA2C1C02F5FA020CFB0EF34FEACE1E3C
:1033F0004FEA112C4FEAC1210EEB635E42EB2242F1
:103400000EFB0CFC4FEA1C5300FB03114FEA112C7E
:103410004FEA01310EFB0CFC4FEADC4C00FB0C11B7
:10342000C14228BF09184CEB03335DF804EB10EBE5
:10343000410143EBC250B2F57C0F38BF704729D52C
:1034400012F0F00F1CBF00F1C04000F000407047C8
:10345000008182838485868788898B8C8D8E8F916D
:103460009293959697999A9C9D9FA0A2A3A5A7A891
:10347000AAACAEB0B2B3B5B7B9BCBEC0C2C5C7C9BD
:10348000CCCED1D4D7D9DCDFE2E6E9ECF0F3F7FA21
:10349000FE0000004FEA400C0CF1807CBCF17E4F36
:1034A00028BF7047B0F1C04000F043B990EA010F67
:1034B0000CEAD11348BF42F48072624538BF6345BD
:1034C00007D213F47F0F16D080EA010000F000400D
:1034D000704710B500F0E7F8097EFC3E00F005B833
:1034E00080EA010000F00040704780EA010000F02F
:1034F000004000F01EB912F47F0F04BF024870476D
:1035000080EA010000F015B90000C07FC10DD1F1C3
:103510009E0206DB4FEA002343F0004323FA02F049
:103520007047004207D54FEA4001B1F1FE4F02D289
:103530004FF00000704710B500F0B5F849922480B4
:10354000002070476FEA20007047000010F0004133
:1035500048BF4042B0FA80F310FA03F2C3F19D0372
:103560000BD051EAC35101EB1220530638BF70470C
:1035700000F1010008BF20F001007047B0FA80F3AD
:1035800010FA03F2C3F19D030AD0D90501EB122012
:10359000530638BF704700F1010008BF20F001005A
:1035A000704700004FF47F0C1CEAD0121EBF1CEACB
:1035B000D11392EA0C0F93EA0C0F00F0478090EAC7
:1035C000010F48BF42F480724FF0004C4CEA0020DB
:1035D0004CEA012102EB0302A0FB0113A2F5000259
:1035E000002918BF43F001035B0028BF4FEA3303F3
:1035F00042EB22425FEA132C4CEBC2502EBFBCEBD5
:10360000436FB2F57C0F70474FEA036CBCF1004F7B
:1036100008BF20F00100B2F57C0F38BF70470BD512
:1036200082F0FF0212F5803FC8BF704700F1C04032
:10363000D8BF00F00040704700F5000C5FEA4C0C6A
:1036400048BF7047B0F1C04000F073B890EA010F76
:103650000CEAD11348BF42F48072624538BF63451B
:1036600004D280EA010000F00040704710B500F07D
:103670001AF800BF8900013E00F007B800F009B851
:103680005FEA410C5FEA1C6C08D080EA010000F0A0
:1036900050B85FEA400C5FEA1C6CF6D14FF0004076
:1036A000A0F5800070470EF1020E2EF0030E5EF8BA
:1036B000044B244204D44FEA4102B2F17F4F11D8A7
:1036C0004FEA4003B3F17F4F0CD80ED14FEAD07CC4
:1036D000B2F17F4F0CEB4C0C0CF1020C08BF4CEB21
:1036E000D17C04E04FF0080C01E04FEAD17C0CEBF8
:1036F0004C0324FA03F404F00704B4F1040C06D2DA
:103700000EEB840CBDE810404CF0010C6047DFE884
:103710000CF0070802024FF00040A0F5800010BD39
:103720000846420018BFD2F1807288BF00F0004006
:1037300010BDFF2141EAD050C005704790EA010F4B
:1037400048BF81F000413FF5C4AD421A04D882F071
:103750000042A0EB020011444FEAD0524FF07F4CE0
:103760001CEA410FA2EBD15318BF9CEA026F4AD06A
:103770004FF0004C4CEA00204CEA012121FA03FCF6
:10378000B0EB0C0C0FD412F0FE0F36D05FEA4C00F9
:103790001DD5001240EBC25038BF70471CF03F0FE0
:1037A00018BF70470BE0A2F101025FEA1C2040EB5A
:1037B000C25038BF70471CF07F0F18BF7047C3F16D
:1037C0002003994014BF401E20F00100704780087C
:1037D0004FEA122308BF7047B0FA80FCA2EB0C023C
:1037E000CCF1280C60FA0CF093EA122F04BF00EB26
:1037F000C25070474FEAC3707047130A5FEADC108B
:1038000008BF7047F6E79CEA026F04D010EA5C0F2D
:1038100008BF0020704710B5FFF745FF40DFF63EB8
:1038200081F0004070470102020304050607080901
:103830000A0B0C0D0E0F101000000000000000001D
:103840000102030406070809000000000102030446
:10385000703800080000002058000000280100080F
:10386000C83800085800002048080000440100083B
:1038700001000000100000000000000000127A00AB
:1038800000640000000000000000000000000000D4
:103890000000000000000000000000000000000028
:1038A0000000000000000000000000000000000018
:1038B0000000000000000000000000000000000008
:0838C000000000000000000000
:04000005080000ED02
:00000001FF
